:020000040000FA
:020000000528D1
:0800080066288316051085101F
:100010000511851106100730810030308B008312E6
:10002000F53081008501061001308D008E008F01B2
:1000300001308C008B171B288D0B262864308D0017
:1000400085010F1825280F1426280F108E0B3A282B
:1000500014308E000F18332805183128033085001E
:100060003A2885013A28051938280C3085003A28A5
:1000700085013A2808008D0B472832308D00850114
:1000800003300F06031946288F0A47288F008E0B6E
:100090005F280A308E000F089000900A013091000E
:1000A0000310900B54285628910D5028050811066E
:1000B00003195D28110885005F2885015F28080065
:1000C0000330850008000C30850008000B196928F2
:1000D0008528F530810000300C06031D71281C2096
:1000E000832801300C06031D77283B20832802302B
:1000F0000C06031D7D286020832803300C06031D99
:100100008328632083280B11090003300C06031990
:0C0110008B288C0A8C288C008B100900B6
:02400E00F13F80
:00000001FF
