:020000040000FA
:020000000528D1
:08000800F42883160510851091
:100010000511851106140730810030308B008312E2
:10002000F53081008501061001308E008F009000B0
:10003000910092019301940195018D0102308C0091
:100040008B1721288E0B2C2832308E008501141836
:100050002B2814142C2814108F0B40280A308F00E2
:1000600014183928051837280330850040288501E1
:10007000402805193E280C3085004028850140287D
:1000800008008E0B4D281E308E00850103301406AB
:1000900003194C28940A4D2894008F0B65280A30C8
:1000A0008F0014089200920A013093000310920B03
:1000B0005A285C28930D562805081306031963284F
:1000C0001308850065288501652808008E0B7328B4
:1000D0001E308E0085010030140603197128940328
:1000E0007328033094008F0B8E280A308F00140879
:1000F00092001208033C9200920A08309300031009
:10010000920B83288528930C7F2805081306031972
:100110008C28130885008E2885018E280800003061
:100120001406031D9B280514151001300E06031933
:10013000A6288F0AA62803301406031DA6288515B5
:10014000151401300E060319A6288F0A1518A928C0
:10015000412866288E0BB5280A308E000518B32872
:100160000F308500B5288501B52808008E0BD228F0
:100170001218C328930A13088E001E301306031D9D
:10018000CB281214CB28930313088E0001301306DA
:10019000031DCB2812100518D0280F308500D22857
:1001A0008501D2280800900BE42864309000910B60
:1001B000E428033091009401850103300D06031DEE
:1001C000E3288D00E4288D0A00300D06031DE92880
:1001D000222801300D06031DEE28412802300D06AD
:1001E000031DF3288F2866280B19F7281529EB30F3
:1001F000810000300C06031DFF2822201329013046
:100200000C06031D05294120132902300C06031D8D
:100210000B298F20132903300C06031D1129AA2056
:100220001329B62013290B1109009201930194019F
:1002300095018D0101308E008F00900091000530F6
:100240000C06031925298C0A26298C008B1009001D
:02400E00F13F80
:00000001FF
